{
  "contractName": "EthBridgeAdapter",
  "abi": [
    {
      "constant": true,
      "inputs": [],
      "name": "signatoryQuorumSize",
      "outputs": [
        {
          "name": "",
          "type": "uint256"
        }
      ],
      "payable": false,
      "stateMutability": "view",
      "type": "function"
    },
    {
      "constant": false,
      "inputs": [],
      "name": "unpause",
      "outputs": [],
      "payable": false,
      "stateMutability": "nonpayable",
      "type": "function"
    },
    {
      "constant": true,
      "inputs": [],
      "name": "sourceAdapterAddress",
      "outputs": [
        {
          "name": "",
          "type": "bytes32"
        }
      ],
      "payable": false,
      "stateMutability": "view",
      "type": "function"
    },
    {
      "constant": true,
      "inputs": [],
      "name": "ownerCandidate",
      "outputs": [
        {
          "name": "",
          "type": "address"
        }
      ],
      "payable": false,
      "stateMutability": "view",
      "type": "function"
    },
    {
      "constant": true,
      "inputs": [],
      "name": "acceptOnlyAuthorizedSenders",
      "outputs": [
        {
          "name": "",
          "type": "bool"
        }
      ],
      "payable": false,
      "stateMutability": "view",
      "type": "function"
    },
    {
      "constant": true,
      "inputs": [],
      "name": "maximumBridgeTransactionGas",
      "outputs": [
        {
          "name": "",
          "type": "uint128"
        }
      ],
      "payable": false,
      "stateMutability": "view",
      "type": "function"
    },
    {
      "constant": true,
      "inputs": [
        {
          "name": "",
          "type": "address"
        }
      ],
      "name": "authorizedSenders",
      "outputs": [
        {
          "name": "",
          "type": "bool"
        }
      ],
      "payable": false,
      "stateMutability": "view",
      "type": "function"
    },
    {
      "constant": false,
      "inputs": [],
      "name": "acceptOwnership",
      "outputs": [],
      "payable": false,
      "stateMutability": "nonpayable",
      "type": "function"
    },
    {
      "constant": true,
      "inputs": [],
      "name": "signatoryContract",
      "outputs": [
        {
          "name": "",
          "type": "address"
        }
      ],
      "payable": false,
      "stateMutability": "view",
      "type": "function"
    },
    {
      "constant": true,
      "inputs": [],
      "name": "relayer",
      "outputs": [
        {
          "name": "",
          "type": "address"
        }
      ],
      "payable": false,
      "stateMutability": "view",
      "type": "function"
    },
    {
      "constant": false,
      "inputs": [],
      "name": "pause",
      "outputs": [],
      "payable": false,
      "stateMutability": "nonpayable",
      "type": "function"
    },
    {
      "constant": true,
      "inputs": [],
      "name": "owner",
      "outputs": [
        {
          "name": "",
          "type": "address"
        }
      ],
      "payable": false,
      "stateMutability": "view",
      "type": "function"
    },
    {
      "constant": true,
      "inputs": [],
      "name": "transactionFee",
      "outputs": [
        {
          "name": "",
          "type": "uint128"
        }
      ],
      "payable": false,
      "stateMutability": "view",
      "type": "function"
    },
    {
      "constant": false,
      "inputs": [
        {
          "name": "_newOwner",
          "type": "address"
        }
      ],
      "name": "changeOwner",
      "outputs": [],
      "payable": false,
      "stateMutability": "nonpayable",
      "type": "function"
    },
    {
      "constant": true,
      "inputs": [
        {
          "name": "",
          "type": "bytes32"
        }
      ],
      "name": "processedTransactions",
      "outputs": [
        {
          "name": "",
          "type": "uint256"
        }
      ],
      "payable": false,
      "stateMutability": "view",
      "type": "function"
    },
    {
      "constant": true,
      "inputs": [],
      "name": "isPaused",
      "outputs": [
        {
          "name": "",
          "type": "bool"
        }
      ],
      "payable": false,
      "stateMutability": "view",
      "type": "function"
    },
    {
      "inputs": [
        {
          "name": "_signatoryContractAddress",
          "type": "address"
        },
        {
          "name": "_relayer",
          "type": "address"
        },
        {
          "name": "_signatoryQuorumSize",
          "type": "uint256"
        },
        {
          "name": "_maximumBridgeTransactionGas",
          "type": "uint128"
        },
        {
          "name": "_transactionFee",
          "type": "uint128"
        },
        {
          "name": "_acceptOnlyAuthorizedSenders",
          "type": "bool"
        }
      ],
      "payable": false,
      "stateMutability": "nonpayable",
      "type": "constructor"
    },
    {
      "payable": true,
      "stateMutability": "payable",
      "type": "fallback"
    },
    {
      "anonymous": false,
      "inputs": [
        {
          "indexed": true,
          "name": "_requestId",
          "type": "uint128"
        },
        {
          "indexed": true,
          "name": "_transactionInitiator",
          "type": "address"
        },
        {
          "indexed": true,
          "name": "_recipientContract",
          "type": "bytes32"
        },
        {
          "indexed": false,
          "name": "_gas",
          "type": "uint128"
        },
        {
          "indexed": false,
          "name": "_data",
          "type": "bytes"
        }
      ],
      "name": "BridgeTransferRequested",
      "type": "event"
    },
    {
      "anonymous": false,
      "inputs": [
        {
          "indexed": true,
          "name": "_newAuthorizedSender",
          "type": "address"
        }
      ],
      "name": "AuthorizedSenderAdded",
      "type": "event"
    },
    {
      "anonymous": false,
      "inputs": [
        {
          "indexed": true,
          "name": "_txFee",
          "type": "uint128"
        }
      ],
      "name": "TransactionFeeUpdated",
      "type": "event"
    },
    {
      "anonymous": false,
      "inputs": [
        {
          "indexed": true,
          "name": "_sourceTransferId",
          "type": "uint128"
        },
        {
          "indexed": true,
          "name": "_sourceTransactionHash",
          "type": "bytes32"
        },
        {
          "indexed": true,
          "name": "_recipientContract",
          "type": "address"
        },
        {
          "indexed": false,
          "name": "hash",
          "type": "bytes32"
        },
        {
          "indexed": false,
          "name": "result",
          "type": "bool"
        }
      ],
      "name": "Processed",
      "type": "event"
    },
    {
      "anonymous": false,
      "inputs": [
        {
          "indexed": true,
          "name": "_blockNumber",
          "type": "uint256"
        }
      ],
      "name": "AlreadyProcessed",
      "type": "event"
    },
    {
      "anonymous": false,
      "inputs": [
        {
          "indexed": true,
          "name": "_newRelayer",
          "type": "address"
        }
      ],
      "name": "RelayerChanged",
      "type": "event"
    },
    {
      "anonymous": false,
      "inputs": [
        {
          "indexed": true,
          "name": "_newSignatoryQuorumSize",
          "type": "uint256"
        }
      ],
      "name": "SignatoryQuorumSizeChanged",
      "type": "event"
    },
    {
      "anonymous": false,
      "inputs": [
        {
          "indexed": true,
          "name": "_newSignatoryContrat",
          "type": "address"
        }
      ],
      "name": "SignatoryContractAddressChanged",
      "type": "event"
    },
    {
      "anonymous": false,
      "inputs": [],
      "name": "Paused",
      "type": "event"
    },
    {
      "anonymous": false,
      "inputs": [],
      "name": "Unpaused",
      "type": "event"
    },
    {
      "anonymous": false,
      "inputs": [
        {
          "indexed": true,
          "name": "_newOwner",
          "type": "address"
        }
      ],
      "name": "ChangedOwner",
      "type": "event"
    },
    {
      "constant": false,
      "inputs": [
        {
          "name": "_sourceTransactionHash",
          "type": "bytes32"
        },
        {
          "name": "_recipientContract",
          "type": "address"
        },
        {
          "name": "_data",
          "type": "bytes"
        },
        {
          "name": "_gas",
          "type": "uint128"
        },
        {
          "name": "_sourceTransferId",
          "type": "uint128"
        },
        {
          "name": "_v",
          "type": "uint8[]"
        },
        {
          "name": "_r",
          "type": "bytes32[]"
        },
        {
          "name": "_s",
          "type": "bytes32[]"
        }
      ],
      "name": "processTransfer",
      "outputs": [],
      "payable": false,
      "stateMutability": "nonpayable",
      "type": "function"
    },
    {
      "constant": false,
      "inputs": [
        {
          "name": "_newAdapterAddress",
          "type": "bytes32"
        }
      ],
      "name": "setSourceAdapterAddress",
      "outputs": [],
      "payable": false,
      "stateMutability": "nonpayable",
      "type": "function"
    },
    {
      "constant": false,
      "inputs": [
        {
          "name": "_newQuorumSize",
          "type": "uint256"
        }
      ],
      "name": "updateSignatoryQuorumSize",
      "outputs": [],
      "payable": false,
      "stateMutability": "nonpayable",
      "type": "function"
    },
    {
      "constant": false,
      "inputs": [
        {
          "name": "_newRelayer",
          "type": "address"
        }
      ],
      "name": "updateRelayer",
      "outputs": [],
      "payable": false,
      "stateMutability": "nonpayable",
      "type": "function"
    },
    {
      "constant": true,
      "inputs": [
        {
          "name": "_sourceTransactionHash",
          "type": "bytes32"
        },
        {
          "name": "_recipientContract",
          "type": "address"
        },
        {
          "name": "_data",
          "type": "bytes"
        },
        {
          "name": "_gas",
          "type": "uint128"
        },
        {
          "name": "_sourceTransferId",
          "type": "uint128"
        }
      ],
      "name": "computeTransferHash",
      "outputs": [
        {
          "name": "",
          "type": "bytes32"
        }
      ],
      "payable": false,
      "stateMutability": "view",
      "type": "function"
    },
    {
      "constant": false,
      "inputs": [
        {
          "name": "_destinationContract",
          "type": "bytes32"
        },
        {
          "name": "_data",
          "type": "bytes"
        },
        {
          "name": "_gas",
          "type": "uint128"
        }
      ],
      "name": "requestTransfer",
      "outputs": [],
      "payable": true,
      "stateMutability": "payable",
      "type": "function"
    },
    {
      "constant": false,
      "inputs": [
        {
          "name": "_newSender",
          "type": "address"
        }
      ],
      "name": "addAuthorizedSender",
      "outputs": [],
      "payable": false,
      "stateMutability": "nonpayable",
      "type": "function"
    },
    {
      "constant": false,
      "inputs": [
        {
          "name": "_acceptOnlyAuthorizedSenders",
          "type": "bool"
        }
      ],
      "name": "setAuthorizedSenderPolicy",
      "outputs": [],
      "payable": false,
      "stateMutability": "nonpayable",
      "type": "function"
    },
    {
      "constant": false,
      "inputs": [
        {
          "name": "_maximumBridgeTransactionGas",
          "type": "uint128"
        }
      ],
      "name": "updateMaximumBridgeTransactionGas",
      "outputs": [],
      "payable": false,
      "stateMutability": "nonpayable",
      "type": "function"
    },
    {
      "constant": false,
      "inputs": [
        {
          "name": "_transactionFee",
          "type": "uint128"
        }
      ],
      "name": "updateTransactionFee",
      "outputs": [],
      "payable": false,
      "stateMutability": "nonpayable",
      "type": "function"
    },
    {
      "constant": true,
      "inputs": [
        {
          "name": "_senderAddress",
          "type": "address"
        }
      ],
      "name": "isAuthorizedSender",
      "outputs": [
        {
          "name": "",
          "type": "bool"
        }
      ],
      "payable": false,
      "stateMutability": "view",
      "type": "function"
    },
    {
      "constant": false,
      "inputs": [
        {
          "name": "_newSignatoryContract",
          "type": "address"
        }
      ],
      "name": "updateSignatoryContract",
      "outputs": [],
      "payable": false,
      "stateMutability": "nonpayable",
      "type": "function"
    },
    {
      "constant": false,
      "inputs": [],
      "name": "destroy",
      "outputs": [],
      "payable": false,
      "stateMutability": "nonpayable",
      "type": "function"
    },
    {
      "constant": false,
      "inputs": [
        {
          "name": "amount",
          "type": "uint256"
        }
      ],
      "name": "withdraw",
      "outputs": [
        {
          "name": "",
          "type": "bool"
        }
      ],
      "payable": false,
      "stateMutability": "nonpayable",
      "type": "function"
    }
  ],
  "bytecode": "0x60606040526000600160146101000a81548160ff021916908315150217905550341561002a57600080fd5b60405160c08061250883398101604052808051906020019091908051906020019091908051906020019091908051906020019091908051906020019091908051906020019091905050336000806101000a81548173ffffffffffffffffffffffffffffffffffffffff021916908373ffffffffffffffffffffffffffffffffffffffff16021790555085600260006101000a81548173ffffffffffffffffffffffffffffffffffffffff021916908373ffffffffffffffffffffffffffffffffffffffff16021790555084600560006101000a81548173ffffffffffffffffffffffffffffffffffffffff021916908373ffffffffffffffffffffffffffffffffffffffff1602179055508360068190555082600360006101000a8154816fffffffffffffffffffffffffffffffff02191690836fffffffffffffffffffffffffffffffff16021790555081600360106101000a8154816fffffffffffffffffffffffffffffffff02191690836fffffffffffffffffffffffffffffffff16021790555080600860006101000a81548160ff02191690831515021790555050505050505061232b806101dd6000396000f30060606040526004361061017f576000357c0100000000000000000000000000000000000000000000000000000000900463ffffffff168062870e9b146101845780630275da08146101ab578063032da4e7146101ce57806322f0b343146102035780632e1a7d4d14610382578063312fa96e146103bd5780633ca40c2f146103e65780633f4ba83a146104c157806358d9c10f146104d65780635ba2edba1461050f5780635f504a821461054057806365fb9265146105955780636f173c42146105c25780636f3249671461060f57806379ba50971461066057806380d797aa1461067557806383197ef0146106ca5780638406c079146106df5780638456cb59146107345780638da5cb5b146107495780638f83ab131461079e5780639ed3edf0146107d7578063a6f9dae114610824578063ac2e49361461085d578063b187bd2614610898578063c6f3051f146108c5578063c888dd6814610910578063e80ff62a14610945578063fa00763a1461096a578063fa7229ee146109bb575b600080fd5b341561018f57600080fd5b6101a96004808035600019169060200190919050506109f4565b005b34156101b657600080fd5b6101cc6004808035906020019091905050610a5d565b005b34156101d957600080fd5b61020160048080356fffffffffffffffffffffffffffffffff16906020019091905050610ba8565b005b341561020e57600080fd5b61038060048080356000191690602001909190803573ffffffffffffffffffffffffffffffffffffffff1690602001909190803590602001908201803590602001908080601f016020809104026020016040519081016040528093929190818152602001838380828437820191505050505050919080356fffffffffffffffffffffffffffffffff169060200190919080356fffffffffffffffffffffffffffffffff16906020019091908035906020019082018035906020019080806020026020016040519081016040528093929190818152602001838360200280828437820191505050505050919080359060200190820180359060200190808060200260200160405190810160405280939291908181526020018383602002808284378201915050505050509190803590602001908201803590602001908080602002602001604051908101604052809392919081815260200183836020028082843782019150505050505091905050610c3f565b005b341561038d57600080fd5b6103a3600480803590602001909190505061100e565b604051808215151515815260200191505060405180910390f35b34156103c857600080fd5b6103d06110fb565b6040518082815260200191505060405180910390f35b34156103f157600080fd5b6104a360048080356000191690602001909190803573ffffffffffffffffffffffffffffffffffffffff1690602001909190803590602001908201803590602001908080601f016020809104026020016040519081016040528093929190818152602001838380828437820191505050505050919080356fffffffffffffffffffffffffffffffff169060200190919080356fffffffffffffffffffffffffffffffff16906020019091905050611101565b60405180826000191660001916815260200191505060405180910390f35b34156104cc57600080fd5b6104d46112c3565b005b34156104e157600080fd5b61050d600480803573ffffffffffffffffffffffffffffffffffffffff16906020019091905050611382565b005b341561051a57600080fd5b610522611486565b60405180826000191660001916815260200191505060405180910390f35b341561054b57600080fd5b61055361148c565b604051808273ffffffffffffffffffffffffffffffffffffffff1673ffffffffffffffffffffffffffffffffffffffff16815260200191505060405180910390f35b34156105a057600080fd5b6105a86114b2565b604051808215151515815260200191505060405180910390f35b34156105cd57600080fd5b6105d56114c5565b60405180826fffffffffffffffffffffffffffffffff166fffffffffffffffffffffffffffffffff16815260200191505060405180910390f35b341561061a57600080fd5b610646600480803573ffffffffffffffffffffffffffffffffffffffff169060200190919050506114e7565b604051808215151515815260200191505060405180910390f35b341561066b57600080fd5b610673611507565b005b341561068057600080fd5b610688611668565b604051808273ffffffffffffffffffffffffffffffffffffffff1673ffffffffffffffffffffffffffffffffffffffff16815260200191505060405180910390f35b34156106d557600080fd5b6106dd61168e565b005b34156106ea57600080fd5b6106f2611723565b604051808273ffffffffffffffffffffffffffffffffffffffff1673ffffffffffffffffffffffffffffffffffffffff16815260200191505060405180910390f35b341561073f57600080fd5b610747611749565b005b341561075457600080fd5b61075c611808565b604051808273ffffffffffffffffffffffffffffffffffffffff1673ffffffffffffffffffffffffffffffffffffffff16815260200191505060405180910390f35b34156107a957600080fd5b6107d5600480803573ffffffffffffffffffffffffffffffffffffffff1690602001909190505061182d565b005b34156107e257600080fd5b6107ea611931565b60405180826fffffffffffffffffffffffffffffffff166fffffffffffffffffffffffffffffffff16815260200191505060405180910390f35b341561082f57600080fd5b61085b600480803573ffffffffffffffffffffffffffffffffffffffff16906020019091905050611953565b005b341561086857600080fd5b6108826004808035600019169060200190919050506119f2565b6040518082815260200191505060405180910390f35b34156108a357600080fd5b6108ab611a0a565b604051808215151515815260200191505060405180910390f35b61090e60048080356000191690602001909190803590602001908201803590602001919091929080356fffffffffffffffffffffffffffffffff16906020019091905050611a21565b005b341561091b57600080fd5b61094360048080356fffffffffffffffffffffffffffffffff16906020019091905050611d2c565b005b341561095057600080fd5b61096860048080351515906020019091905050611e20565b005b341561097557600080fd5b6109a1600480803573ffffffffffffffffffffffffffffffffffffffff16906020019091905050611e98565b604051808215151515815260200191505060405180910390f35b34156109c657600080fd5b6109f2600480803573ffffffffffffffffffffffffffffffffffffffff16906020019091905050611f0e565b005b6000809054906101000a900473ffffffffffffffffffffffffffffffffffffffff1673ffffffffffffffffffffffffffffffffffffffff163373ffffffffffffffffffffffffffffffffffffffff16141515610a4f57600080fd5b806007816000191690555050565b6000809054906101000a900473ffffffffffffffffffffffffffffffffffffffff1673ffffffffffffffffffffffffffffffffffffffff163373ffffffffffffffffffffffffffffffffffffffff16141515610ab857600080fd5b600260009054906101000a900473ffffffffffffffffffffffffffffffffffffffff1673ffffffffffffffffffffffffffffffffffffffff16630f4b2a576000604051602001526040518163ffffffff167c0100000000000000000000000000000000000000000000000000000000028152600401602060405180830381600087803b1515610b4657600080fd5b6102c65a03f11515610b5757600080fd5b505050604051805190508111151515610b6f57600080fd5b806006819055506006547ff6d2fcaabed909c519a9db4eaf599366e1831491d786e6ee3ba1b58fd408269c60405160405180910390a250565b6000809054906101000a900473ffffffffffffffffffffffffffffffffffffffff1673ffffffffffffffffffffffffffffffffffffffff163373ffffffffffffffffffffffffffffffffffffffff16141515610c0357600080fd5b80600360006101000a8154816fffffffffffffffffffffffffffffffff02191690836fffffffffffffffffffffffffffffffff16021790555050565b600080600560009054906101000a900473ffffffffffffffffffffffffffffffffffffffff1673ffffffffffffffffffffffffffffffffffffffff163373ffffffffffffffffffffffffffffffffffffffff16141515610c9e57600080fd5b6000600a60008c60001916600019168152602001908152602001600020541115610d0f57600a60008b60001916600019168152602001908152602001600020547f5ad313b98307396503216a4ca5839434f3e05ef29ed082d717dcd5c817b52ba660405160405180910390a2611002565b600460109054906101000a90046fffffffffffffffffffffffffffffffff166fffffffffffffffffffffffffffffffff16866fffffffffffffffffffffffffffffffff16141515610d5f57600080fd5b600654855110151515610d7157600080fd5b610d7e8a8a8a8a8a611101565b9150610db282868686600260009054906101000a900473ffffffffffffffffffffffffffffffffffffffff16600654612007565b1515610dbd57600080fd5b6000876fffffffffffffffffffffffffffffffff161115610e7a578873ffffffffffffffffffffffffffffffffffffffff16876fffffffffffffffffffffffffffffffff168960405180828051906020019080838360005b83811015610e30578082015181840152602081019050610e15565b50505050905090810190601f168015610e5d5780820380516001836020036101000a031916815260200191505b5091505060006040518083038160008787f1925050509050610f08565b8873ffffffffffffffffffffffffffffffffffffffff168860405180828051906020019080838360005b83811015610ebf578082015181840152602081019050610ea4565b50505050905090810190601f168015610eec5780820380516001836020036101000a031916815260200191505b5091505060006040518083038160008661646e5a03f191505090505b43600a60008c60001916600019168152602001908152602001600020819055506004601081819054906101000a90046fffffffffffffffffffffffffffffffff168092919060010191906101000a8154816fffffffffffffffffffffffffffffffff02191690836fffffffffffffffffffffffffffffffff160217905550508873ffffffffffffffffffffffffffffffffffffffff168a60001916876fffffffffffffffffffffffffffffffff167fd26a8bacdc09721887e51c25f2aea9cdc086c44e3ec3a353e53dec9970fbaad18585604051808360001916600019168152602001821515151581526020019250505060405180910390a45b50505050505050505050565b60008060009054906101000a900473ffffffffffffffffffffffffffffffffffffffff1673ffffffffffffffffffffffffffffffffffffffff163373ffffffffffffffffffffffffffffffffffffffff1614151561106b57600080fd5b3073ffffffffffffffffffffffffffffffffffffffff1631821115151561109157600080fd5b6000809054906101000a900473ffffffffffffffffffffffffffffffffffffffff1673ffffffffffffffffffffffffffffffffffffffff166108fc839081150290604051600060405180830381858888f1935050505015156110f257600080fd5b60019050919050565b60065481565b6000856007548686868660017f01000000000000000000000000000000000000000000000000000000000000000260405180886000191660001916815260200187600019166000191681526020018673ffffffffffffffffffffffffffffffffffffffff1673ffffffffffffffffffffffffffffffffffffffff166c0100000000000000000000000002815260140185805190602001908083835b6020831015156111c1578051825260208201915060208101905060208303925061119c565b6001836020036101000a038019825116818451168082178552505050505050905001846fffffffffffffffffffffffffffffffff166fffffffffffffffffffffffffffffffff16700100000000000000000000000000000000028152601001836fffffffffffffffffffffffffffffffff166fffffffffffffffffffffffffffffffff16700100000000000000000000000000000000028152601001827effffffffffffffffffffffffffffffffffffffffffffffffffffffffffffff19167effffffffffffffffffffffffffffffffffffffffffffffffffffffffffffff191681526001019750505050505050506040518091039020905095945050505050565b6000809054906101000a900473ffffffffffffffffffffffffffffffffffffffff1673ffffffffffffffffffffffffffffffffffffffff163373ffffffffffffffffffffffffffffffffffffffff1614151561131e57600080fd5b600160149054906101000a900460ff16151561133957600080fd5b6000600160146101000a81548160ff0219169083151502179055507fa45f47fdea8a1efdd9029a5691c7f759c32b7c698632b563573e155625d1693360405160405180910390a1565b6000809054906101000a900473ffffffffffffffffffffffffffffffffffffffff1673ffffffffffffffffffffffffffffffffffffffff163373ffffffffffffffffffffffffffffffffffffffff161415156113dd57600080fd5b80600260006101000a81548173ffffffffffffffffffffffffffffffffffffffff021916908373ffffffffffffffffffffffffffffffffffffffff160217905550600260009054906101000a900473ffffffffffffffffffffffffffffffffffffffff1673ffffffffffffffffffffffffffffffffffffffff167f4fc9675aec484f25bfe7b7dca26bdf611bf3496eefb9e4a1e1170620a9bcdb0c60405160405180910390a250565b60075481565b600160009054906101000a900473ffffffffffffffffffffffffffffffffffffffff1681565b600860009054906101000a900460ff1681565b600360009054906101000a90046fffffffffffffffffffffffffffffffff1681565b60096020528060005260406000206000915054906101000a900460ff1681565b600160009054906101000a900473ffffffffffffffffffffffffffffffffffffffff1673ffffffffffffffffffffffffffffffffffffffff163373ffffffffffffffffffffffffffffffffffffffff16141561166657600160009054906101000a900473ffffffffffffffffffffffffffffffffffffffff166000806101000a81548173ffffffffffffffffffffffffffffffffffffffff021916908373ffffffffffffffffffffffffffffffffffffffff1602179055506000600160006101000a81548173ffffffffffffffffffffffffffffffffffffffff021916908373ffffffffffffffffffffffffffffffffffffffff1602179055506000809054906101000a900473ffffffffffffffffffffffffffffffffffffffff1673ffffffffffffffffffffffffffffffffffffffff167fa701229f4b9ddf00aa1c7228d248e6320ee7c581d856ddfba036e73947cd0d1360405160405180910390a25b565b600260009054906101000a900473ffffffffffffffffffffffffffffffffffffffff1681565b6000809054906101000a900473ffffffffffffffffffffffffffffffffffffffff1673ffffffffffffffffffffffffffffffffffffffff163373ffffffffffffffffffffffffffffffffffffffff161415156116e957600080fd5b6000809054906101000a900473ffffffffffffffffffffffffffffffffffffffff1673ffffffffffffffffffffffffffffffffffffffff16ff5b600560009054906101000a900473ffffffffffffffffffffffffffffffffffffffff1681565b6000809054906101000a900473ffffffffffffffffffffffffffffffffffffffff1673ffffffffffffffffffffffffffffffffffffffff163373ffffffffffffffffffffffffffffffffffffffff161415156117a457600080fd5b600160149054906101000a900460ff161515156117c057600080fd5b60018060146101000a81548160ff0219169083151502179055507f9e87fac88ff661f02d44f95383c817fece4bce600a3dab7a54406878b965e75260405160405180910390a1565b6000809054906101000a900473ffffffffffffffffffffffffffffffffffffffff1681565b6000809054906101000a900473ffffffffffffffffffffffffffffffffffffffff1673ffffffffffffffffffffffffffffffffffffffff163373ffffffffffffffffffffffffffffffffffffffff1614151561188857600080fd5b80600560006101000a81548173ffffffffffffffffffffffffffffffffffffffff021916908373ffffffffffffffffffffffffffffffffffffffff160217905550600560009054906101000a900473ffffffffffffffffffffffffffffffffffffffff1673ffffffffffffffffffffffffffffffffffffffff167f88cb58f8479aba47ccd2dcbc41bf94bc01e3f58a877cbe5e7f3bd978d89773ba60405160405180910390a250565b600360109054906101000a90046fffffffffffffffffffffffffffffffff1681565b6000809054906101000a900473ffffffffffffffffffffffffffffffffffffffff1673ffffffffffffffffffffffffffffffffffffffff163373ffffffffffffffffffffffffffffffffffffffff161415156119ae57600080fd5b80600160006101000a81548173ffffffffffffffffffffffffffffffffffffffff021916908373ffffffffffffffffffffffffffffffffffffffff16021790555050565b600a6020528060005260406000206000915090505481565b6000600160149054906101000a900460ff16905090565b600160149054906101000a900460ff16151515611a3d57600080fd5b600360109054906101000a90046fffffffffffffffffffffffffffffffff166fffffffffffffffffffffffffffffffff16341480611ac357503073ffffffffffffffffffffffffffffffffffffffff1631600360109054906101000a90046fffffffffffffffffffffffffffffffff166fffffffffffffffffffffffffffffffff163403105b1515611ace57600080fd5b611ad733611e98565b1515611ae257600080fd5b806fffffffffffffffffffffffffffffffff16600011158015611b475750600360009054906101000a90046fffffffffffffffffffffffffffffffff166fffffffffffffffffffffffffffffffff16816fffffffffffffffffffffffffffffffff1611155b1515611b5257600080fd5b83600019163373ffffffffffffffffffffffffffffffffffffffff16600460009054906101000a90046fffffffffffffffffffffffffffffffff166fffffffffffffffffffffffffffffffff167f417bd22ee71704e612a440f16da7fb540791d4712c5f94329042626b53136b4884878760405180846fffffffffffffffffffffffffffffffff166fffffffffffffffffffffffffffffffff168152602001806020018281038252848482818152602001925080828437820191505094505050505060405180910390a46004600081819054906101000a90046fffffffffffffffffffffffffffffffff168092919060010191906101000a8154816fffffffffffffffffffffffffffffffff02191690836fffffffffffffffffffffffffffffffff16021790555050600360109054906101000a90046fffffffffffffffffffffffffffffffff166fffffffffffffffffffffffffffffffff16341115611d26573373ffffffffffffffffffffffffffffffffffffffff166108fc600360109054906101000a90046fffffffffffffffffffffffffffffffff166fffffffffffffffffffffffffffffffff1634039081150290604051600060405180830381858888f193505050501515611d2557600080fd5b5b50505050565b6000809054906101000a900473ffffffffffffffffffffffffffffffffffffffff1673ffffffffffffffffffffffffffffffffffffffff163373ffffffffffffffffffffffffffffffffffffffff16141515611d8757600080fd5b80600360106101000a8154816fffffffffffffffffffffffffffffffff02191690836fffffffffffffffffffffffffffffffff160217905550600360109054906101000a90046fffffffffffffffffffffffffffffffff166fffffffffffffffffffffffffffffffff167fc3a6081e41b7936ba920efe259ffb846ccea2e8a0fe5a1c2701b37a6c6bf4c2960405160405180910390a250565b6000809054906101000a900473ffffffffffffffffffffffffffffffffffffffff1673ffffffffffffffffffffffffffffffffffffffff163373ffffffffffffffffffffffffffffffffffffffff16141515611e7b57600080fd5b80600860006101000a81548160ff02191690831515021790555050565b6000600860009054906101000a900460ff161515611eb95760019050611f09565b600960008373ffffffffffffffffffffffffffffffffffffffff1673ffffffffffffffffffffffffffffffffffffffff16815260200190815260200160002060009054906101000a900460ff1690505b919050565b6000809054906101000a900473ffffffffffffffffffffffffffffffffffffffff1673ffffffffffffffffffffffffffffffffffffffff163373ffffffffffffffffffffffffffffffffffffffff16141515611f6957600080fd5b6001600960008373ffffffffffffffffffffffffffffffffffffffff1673ffffffffffffffffffffffffffffffffffffffff16815260200190815260200160002060006101000a81548160ff0219169083151502179055508073ffffffffffffffffffffffffffffffffffffffff167fd06d2241a59677d082959f22e5a5212c57a9e890949a9d0f2426efd49f8c5d7f60405160405180910390a250565b60006120116122eb565b600080846040518059106120225750595b90808252806020026020018201604052509250600091505b885182101561225b5760018a8a8481518110151561205457fe5b906020019060200201518a8581518110151561206c57fe5b906020019060200201518a8681518110151561208457fe5b90602001906020020151604051600081526020016040526000604051602001526040518085600019166000191681526020018460ff1660ff16815260200183600019166000191681526020018260001916600019168152602001945050505050602060405160208103908084039060008661646e5a03f1151561210657600080fd5b50506020604051035190508573ffffffffffffffffffffffffffffffffffffffff16639abd4dd9826000604051602001526040518263ffffffff167c0100000000000000000000000000000000000000000000000000000000028152600401808273ffffffffffffffffffffffffffffffffffffffff1673ffffffffffffffffffffffffffffffffffffffff168152602001915050602060405180830381600087803b15156121b457600080fd5b6102c65a03f115156121c557600080fd5b5050506040518051905080156121e257506121e0838261226d565b155b1561224e578480600190039550508083868151811015156121ff57fe5b9060200190602002019073ffffffffffffffffffffffffffffffffffffffff16908173ffffffffffffffffffffffffffffffffffffffff1681525050600085141561224d5760019350612260565b5b818060010192505061203a565b600093505b5050509695505050505050565b600080600090505b83518110156122df578273ffffffffffffffffffffffffffffffffffffffff1684828151811015156122a357fe5b9060200190602002015173ffffffffffffffffffffffffffffffffffffffff1614156122d257600191506122e4565b8080600101915050612275565b600091505b5092915050565b6020604051908101604052806000815250905600a165627a7a723058208e604b7cc05f1d68f5439a40d77ca46a1cc65fcf45747f961490eb79570a62db0029",
  "source": "/**\n * This code is licensed under the MIT License\n *\n * Copyright (c) 2019 Aion Foundation https://aion.network/\n *\n * Permission is hereby granted, free of charge, to any person obtaining a copy\n * of this software and associated documentation files (the \"Software\"), to deal\n * in the Software without restriction, including without limitation the rights\n * to use, copy, modify, merge, publish, distribute, sublicense, and/or sell\n * copies of the Software, and to permit persons to whom the Software is\n * furnished to do so, subject to the following conditions:\n *\n * The above copyright notice and this permission notice shall be included in all\n * copies or substantial portions of the Software.\n *\n * THE SOFTWARE IS PROVIDED \"AS IS\", WITHOUT WARRANTY OF ANY KIND, EXPRESS OR\n * IMPLIED, INCLUDING BUT NOT LIMITED TO THE WARRANTIES OF MERCHANTABILITY,\n * FITNESS FOR A PARTICULAR PURPOSE AND NONINFRINGEMENT. IN NO EVENT SHALL THE\n * AUTHORS OR COPYRIGHT HOLDERS BE LIABLE FOR ANY CLAIM, DAMAGES OR OTHER\n * LIABILITY, WHETHER IN AN ACTION OF CONTRACT, TORT OR OTHERWISE, ARISING FROM,\n * OUT OF OR IN CONNECTION WITH THE SOFTWARE OR THE USE OR OTHER DEALINGS IN THE\n * SOFTWARE.\n */\npragma solidity ^0.4.15;\n\ncontract Owned {\n    address public owner;\n    address public ownerCandidate;\n\n    event ChangedOwner(address indexed _newOwner);\n\n    modifier onlyOwner() {\n        require(msg.sender == owner);\n        _;\n    }\n\n    function Owned() internal {\n        owner = msg.sender;\n    }\n\n    function changeOwner(address _newOwner) onlyOwner external {\n        ownerCandidate = _newOwner;\n    }\n\n    function acceptOwnership() external {\n        if (msg.sender == ownerCandidate) {\n            owner = ownerCandidate;\n            ownerCandidate = 0x0;\n            ChangedOwner(owner);\n        }\n    }\n}\n\ncontract Pausable is Owned {\n    bool private paused = false;\n\n    event Paused();\n    event Unpaused();\n\n    function isPaused() public constant returns (bool) {\n        return paused;\n    }\n\n    modifier whenNotPaused() {\n        require(!paused);\n        _;\n    }\n\n    modifier whenPaused() {\n        require(paused);\n        _;\n    }\n\n    function pause() external onlyOwner whenNotPaused {\n        paused = true;\n        Paused();\n    }\n\n    function unpause() external onlyOwner whenPaused {\n        paused = false;\n        Unpaused();\n    }\n}\n\ninterface IBridgeSignatory {\n    function isSignatory(address _signatoryAddress) public constant returns (bool);\n    function signatoryCount() public constant returns (uint);\n}\n\ncontract BridgeSignatory is IBridgeSignatory, Owned {\n\n    string constant network = \"Aion-Ethereum\";\n    uint public minimumVotesRequired;\n    bool public initializationMode = true;\n\n    address[] public validSignatories;\n\n    mapping(address => bytes32) public signatoryName;\n    mapping(bytes32 => address[]) signedChanges;\n\n    modifier onlyInitializationMode(){\n        require(initializationMode);\n        _;\n    }\n\n    modifier onlySelfGovernanceMode(){\n        require(!initializationMode);\n        _;\n    }\n\n    modifier onlySignatories(){\n        require(signatoryName[msg.sender] != 0);\n        _;\n    }\n\n    modifier signatoryDoesNotExist(address _signatoryAddress) {\n        require(signatoryName[_signatoryAddress] == 0);\n        _;\n    }\n\n    modifier signatoryExists(address _signatoryAddress) {\n        require(signatoryName[_signatoryAddress] != 0);\n        _;\n    }\n\n    event SignatoryAdded(address indexed _signatoryAddress, bytes32 _signatoryName);\n    event SignatoryRemoved(address indexed _signatoryAddress, bytes32 _signatoryName);\n    event SignatureReceived(address indexed _signatoryAddress, bytes32 _signatoryName, uint _currentVoteCount, uint _minimumVotesRequired, bytes1 _operation);\n\n    function BridgeSignatory(address[] _initialSignatoryAddresses, bytes32[] _initialSignatoryNames){\n        require(_initialSignatoryAddresses.length == _initialSignatoryNames.length);\n        for (uint i = 0; i < _initialSignatoryAddresses.length; i++) {\n            require(isUniqueSignatory(_initialSignatoryAddresses[i], _initialSignatoryNames[i]));\n            signatoryName[_initialSignatoryAddresses[i]] = _initialSignatoryNames[i];\n            validSignatories.push(_initialSignatoryAddresses[i]);\n        }\n    }\n\n    function() public payable {\n        revert();\n    }\n\n    /// @notice Add a new signatory\n    /// @dev During the initialization mode only the owner has the authority to add a signatory to the list\n    /// Once the self governance mode is initiated signatories will manage themselves\n    /// With this implementation, owner can be a signatory\n    function addSignatory(address _signatoryAddress, bytes32 _signatoryName)\n    public\n    onlyOwner\n    onlyInitializationMode\n    signatoryDoesNotExist(_signatoryAddress)\n    {\n        addToStorage(_signatoryAddress, _signatoryName);\n    }\n\n    /// @notice Remove a signatory\n    /// @dev During the initialization mode only the owner has the authority to remove a signatory from the list\n    /// Once the self governance mode is initiated signatories will manage themselves\n    function removeSignatory(address _signatoryAddress, bytes32 _signatoryName)\n    public\n    onlyOwner\n    onlyInitializationMode\n    signatoryExists(_signatoryAddress)\n    {\n        deleteFromStorage(_signatoryAddress, _signatoryName);\n    }\n\n    /// @notice Submit vote to add a new signatory\n    /// @dev During the self governance mode, majority of signatories should submit their vote for an action to be performed\n    function submitAddSignatoryVote(address _signatoryAddress, bytes32 _signatoryName)\n    public\n    onlySignatories\n    onlySelfGovernanceMode\n    signatoryDoesNotExist(_signatoryAddress)\n    {\n        bytes32 hash = keccak256(_signatoryAddress, _signatoryName, 0x1); //\"add\"\n        signedChanges[hash].push(msg.sender);\n\n        if (signedChanges[hash].length == minimumVotesRequired) {\n            //delete form signedChanges because threshold can change\n            //need to start from scratch every time voting begins\n            delete signedChanges[hash];\n            addToStorage(_signatoryAddress, _signatoryName);\n        } else {\n            SignatureReceived(_signatoryAddress, _signatoryName, signedChanges[hash].length, minimumVotesRequired, 0x1);\n        }\n    }\n\n    /// @notice Submit vote to remove a signatory\n    /// @dev During the self governance mode, majority of signatories should submit their vote for an action to be performed\n    function submitRemoveSignatoryVote(address _signatoryAddress, bytes32 _signatoryName)\n    public\n    onlySignatories\n    onlySelfGovernanceMode\n    signatoryExists(_signatoryAddress)\n    {\n        bytes32 hash = keccak256(_signatoryAddress, signatoryName[_signatoryAddress], 0x2); //\"remove\"\n        signedChanges[hash].push(msg.sender);\n\n        if (signedChanges[hash].length == minimumVotesRequired) {\n            //delete form signedChanges because threshold can change.\n            //need to start from scratch every time voting begins.\n            delete signedChanges[hash];\n            deleteFromStorage(_signatoryAddress, _signatoryName);\n        } else {\n            SignatureReceived(_signatoryAddress, signatoryName[_signatoryAddress], signedChanges[hash].length, minimumVotesRequired, 0x2);\n        }\n    }\n\n    /// @notice Remove the caller from valid signatory list\n    /// @dev This is possible in both self governance and initialization modes\n    function removeSelfFromSignatoryList()\n    public\n    onlySignatories\n    signatoryExists(msg.sender)\n    {\n        deleteFromStorage(msg.sender, signatoryName[msg.sender]);\n    }\n\n    /// @notice Starts the self governance mode\n    /// @dev once the self governance mode is initialized owner does not have the power to add or remove signatories\n    /// Mode cannot be reverted back to initialization.\n    function initiateSelfGovernanceMode() public  onlyInitializationMode onlyOwner {\n        initializationMode = !initializationMode;\n    }\n\n    /// @return signatory address associated to the name if it exists\n    function lookupName(bytes32 _signatoryName) constant public returns (address) {\n        for (uint i = 0; i < validSignatories.length; i++) {\n            if (signatoryName[validSignatories[i]] == _signatoryName) {\n                return validSignatories[i];\n            }\n        }\n        return address(0);\n    }\n\n    /// @return true if the address is a valid signatory, false otherwise\n    function isSignatory(address _signatoryAddress) public constant returns (bool) {\n        return signatoryName[_signatoryAddress] != 0;\n    }\n\n    /// @return the number of valid signatories registered in the contract\n    function signatoryCount() public constant returns (uint) {\n        return validSignatories.length;\n    }\n\n    /// @return the list of valid signatories registered in the contract\n    function getValidSignatoryList() public constant returns (address[] memory) {\n        return validSignatories;\n    }\n\n    /// @dev Set the minimum number of votes required to add or remove a signatory\n    function setMinimumVotesRequired(uint _newValue) private {\n        require(_newValue != 0 && _newValue <= validSignatories.length);\n        minimumVotesRequired = _newValue;\n    }\n\n    /// @notice recalculate the quorum threshold\n    /// @dev It is done after each change to the signatory list\n    /// Size of the signatory list can never be 0\n    function recalculateMinimumVotesRequired() private {\n        if (!initializationMode) {\n            if (validSignatories.length < 5) {\n                setMinimumVotesRequired(validSignatories.length);\n            } else {\n                // compute majority\n                setMinimumVotesRequired(uint((2 * validSignatories.length) / 3));\n            }\n        }\n    }\n\n    /// @notice Remove the signatory from the list\n    /// @dev Existence in array has been validated before\n    function deleteFromStorage(address _signatoryAddress, bytes32 _signatoryName) private {\n        require(signatoryName[_signatoryAddress] == _signatoryName);\n\n        for (uint i = 0; i < validSignatories.length - 1; i++) {\n            if (validSignatories[i] == _signatoryAddress) {\n                validSignatories[i] = validSignatories[validSignatories.length - 1];\n                break;\n            }\n        }\n        validSignatories.length -= 1;\n        recalculateMinimumVotesRequired();\n        delete signatoryName[_signatoryAddress];\n\n        SignatoryRemoved(_signatoryAddress, _signatoryName);\n    }\n\n    /// @notice Add the signatory to list\n    function addToStorage(address _signatoryAddress, bytes32 _signatoryName) private {\n        require(isUniqueSignatory(_signatoryAddress, _signatoryName));\n\n        signatoryName[_signatoryAddress] = _signatoryName;\n        validSignatories.push(_signatoryAddress);\n        recalculateMinimumVotesRequired();\n\n        SignatoryAdded(_signatoryAddress, _signatoryName);\n    }\n\n    /// @return true if the signatory name and address do not exit in the list, false otherwise\n    function isUniqueSignatory(address _signatoryAddress, bytes32 _signatoryName) private constant returns (bool){\n        return _signatoryAddress != address(0) && _signatoryName != 0 && lookupName(_signatoryName) == address(0);\n    }\n}\n\nlibrary EthBridgeHelpers {\n\n    function addressArrayContains(address[] _array, address _value) internal constant returns (bool) {\n        for (uint i = 0; i < _array.length; i++) {\n            if (_array[i] == _value) {\n                return true;\n            }\n        }\n        return false;\n    }\n\n    /// @param _transferHash Hash of the transfer data to be validated\n    /// @param _v Output of ECDSA signature\n    /// @param _r Output of ECDSA signature\n    /// @param _s Output of ECDSA signature\n    /// @param _signatoryContract Address of the contract containing valid signatories\n    /// @param _quorumSize minimum number of valid signatures required\n    /// @return true if _transferHash has been signed by the required number of signatories, false otherwise\n    function hasEnoughValidSignatures(\n        bytes32 _transferHash,\n        uint8[] _v,\n        bytes32[] _r,\n        bytes32[] _s,\n        IBridgeSignatory _signatoryContract,\n        uint _quorumSize\n    )\n    internal\n    constant\n    returns (bool)\n    {\n        address[] memory recoveredSigners = new address[](_quorumSize);\n\n        for (uint i = 0; i < _v.length; i++) {\n            address recoveredAddress = ecrecover(_transferHash, _v[i], _r[i], _s[i]);\n            if (_signatoryContract.isSignatory(recoveredAddress) && !addressArrayContains(recoveredSigners, recoveredAddress)) {\n                _quorumSize --;\n                recoveredSigners[_quorumSize] = recoveredAddress;\n                if (_quorumSize == 0)\n                    return true;\n            }\n        }\n        return false;\n    }\n}\n\ncontract EthBridgeAdapter is Pausable {\n\n    //AION\n    bytes1 constant sourceNetworkId = 0x1;\n\n    IBridgeSignatory public signatoryContract;\n\n    uint128 public maximumBridgeTransactionGas;\n    uint128 public transactionFee;\n    uint128 requestId;\n\n    uint128 expectedSourceTransferId;\n    address public relayer;\n    uint public signatoryQuorumSize; //uint256\n    bytes32 public sourceAdapterAddress;\n    bool public acceptOnlyAuthorizedSenders;\n\n    mapping(address => bool) public authorizedSenders;\n    //mapping of transactionHash => blockNumber\n    mapping(bytes32 => uint) public processedTransactions;\n\n    //source events\n    event BridgeTransferRequested(uint128 indexed _requestId, address indexed _transactionInitiator, bytes32 indexed _recipientContract, uint128 _gas, bytes _data);\n    event AuthorizedSenderAdded(address indexed _newAuthorizedSender);\n    event TransactionFeeUpdated(uint128 indexed _txFee);\n\n    //destination events\n    event Processed(uint128 indexed _sourceTransferId, bytes32 indexed _sourceTransactionHash, address indexed _recipientContract, bytes32 hash, bool result);\n    event AlreadyProcessed(uint indexed _blockNumber);\n    event RelayerChanged (address indexed _newRelayer);\n    event SignatoryQuorumSizeChanged(uint indexed _newSignatoryQuorumSize); //uint256\n    event SignatoryContractAddressChanged(address indexed _newSignatoryContrat);\n\n\n    modifier onlyRelayer() {\n        require(msg.sender == relayer);\n        _;\n    }\n\n    modifier onlyAssociatedSourceAdaptor(bytes32 _sourceAdapterAddress) {\n        require(sourceAdapterAddress == _sourceAdapterAddress);\n        _;\n    }\n\n    function EthBridgeAdapter(\n        address _signatoryContractAddress,\n        address _relayer,\n        uint _signatoryQuorumSize, //uint256\n        uint128 _maximumBridgeTransactionGas,\n        uint128 _transactionFee,\n        bool _acceptOnlyAuthorizedSenders)\n    {\n        signatoryContract = IBridgeSignatory(_signatoryContractAddress);\n        relayer = _relayer;\n        signatoryQuorumSize = _signatoryQuorumSize;\n        maximumBridgeTransactionGas = _maximumBridgeTransactionGas;\n        transactionFee = _transactionFee;\n        acceptOnlyAuthorizedSenders = _acceptOnlyAuthorizedSenders;\n    }\n\n    function() public payable {\n        revert();\n    }\n\n    // ------------- destination -------------\n\n    /// @notice Processes a message transfer request originated on the Aion chain\n    /// @dev Each source transaction is processed once and identified using the transaction hash\n    /// Additionally, transactions are nonced to keep the order on both chains\n    /// @param _sourceTransactionHash Transaction hash from the Aion adapter which contains the BridgeTransferRequested event\n    /// @param _recipientContract Contract to call from this adapter\n    /// @param _data Encoded function call and arguments\n    /// @param _gas Amount of gas to be used by the function call\n    /// @param _sourceTransferId Nonce of the Aion transfer request event\n    /// @param _v Output of ECDSA signature\n    /// @param _r Output of ECDSA signature\n    /// @param _s Output of ECDSA signature\n    function processTransfer(\n        bytes32 _sourceTransactionHash,\n        address _recipientContract,\n        bytes _data,\n        uint128 _gas,\n        uint128 _sourceTransferId,\n        uint8[] _v,\n        bytes32[] _r,\n        bytes32[] _s\n    )\n    public\n    onlyRelayer\n    {\n        if (processedTransactions[_sourceTransactionHash] > 0) {\n            AlreadyProcessed(processedTransactions[_sourceTransactionHash]);\n            return;\n        }\n        // if the transaction hash has not been processed yet, it should be the next expected index\n        require(_sourceTransferId == expectedSourceTransferId);\n        require(_v.length >= signatoryQuorumSize);\n\n        bytes32 hash = computeTransferHash(_sourceTransactionHash, _recipientContract, _data, _gas, _sourceTransferId);\n\n        require(EthBridgeHelpers.hasEnoughValidSignatures(hash, _v, _r, _s, signatoryContract, signatoryQuorumSize));\n\n        bool result;\n        if (_gas > 0) {\n            result = _recipientContract.call.gas(_gas)(_data);\n        } else {\n            result = _recipientContract.call(_data);\n        }\n        processedTransactions[_sourceTransactionHash] = block.number;\n        expectedSourceTransferId ++;\n        Processed(_sourceTransferId, _sourceTransactionHash, _recipientContract, hash, result);\n    }\n\n    /// @notice Updates the associated Aion adapter contract address\n    function setSourceAdapterAddress(bytes32 _newAdapterAddress) public onlyOwner {\n        sourceAdapterAddress = _newAdapterAddress;\n    }\n\n    //uint256\n    /// @notice Updates the minimum number of signatures required\n    function updateSignatoryQuorumSize(uint _newQuorumSize) public onlyOwner {\n        //remove?\n        require(_newQuorumSize <= signatoryContract.signatoryCount());\n        signatoryQuorumSize = _newQuorumSize;\n        SignatoryQuorumSizeChanged(signatoryQuorumSize);\n    }\n\n    /// @notice Updates the relayer account\n    function updateRelayer(address _newRelayer) public onlyOwner {\n        relayer = _newRelayer;\n        RelayerChanged(relayer);\n    }\n\n    /// @notice Computes blake2b hash\n    /// @param _sourceTransactionHash Transaction hash from the Aion adapter which contains the BridgeTransferRequested event\n    /// @param _recipientContract Contract to call from this adapter\n    /// @param _data Encoded function call and arguments\n    /// @param _gas Amount of gas to be used by the function call\n    /// @param _sourceTransferId Nonce of the Aion transfer request event\n    function computeTransferHash(\n        bytes32 _sourceTransactionHash,\n        address _recipientContract,\n        bytes _data,\n        uint128 _gas,\n        uint128 _sourceTransferId\n    )\n    public\n    constant\n    returns (bytes32)\n    {\n        return keccak256(_sourceTransactionHash, sourceAdapterAddress, _recipientContract, _data, _gas, _sourceTransferId, sourceNetworkId);\n    }\n    // ----------------------------------\n\n    // ------------- source -------------\n\n    /// @notice Generates a cross chain transfer request event to be picked up by the bridge\n    /// @dev Contract owner can define a fee for each transaction relayed to Aion\n    /// @param _destinationContract Recipient contract address to be called on Aion\n    /// @param _data Encoded function call and arguments\n    /// @param _gas Amount of gas to be used by the function call\n    function requestTransfer(\n        bytes32 _destinationContract,\n        bytes _data,\n        uint128 _gas\n    )\n    external\n    whenNotPaused\n    payable\n    {\n        //ensure adapter can return the extra value\n        require(msg.value == transactionFee || msg.value - transactionFee < this.balance);\n\n        require(isAuthorizedSender(msg.sender));\n        require(0 <= _gas && _gas <= maximumBridgeTransactionGas);\n        BridgeTransferRequested(requestId, msg.sender, _destinationContract, _gas, _data);\n        requestId ++;\n        //transfer the extra value back to the sender\n        //Sender contract should be able to deal with the transferred balance\n        if(msg.value > transactionFee){\n            msg.sender.transfer(msg.value - transactionFee);\n        }\n    }\n\n    /// @notice Adds the address to the list of accounts authorized to request message transfers\n    function addAuthorizedSender(address _newSender) public onlyOwner {\n        // mode is not checked. It's not necessary to add senders only if we're validating them\n        authorizedSenders[_newSender] = true;\n        AuthorizedSenderAdded(_newSender);\n    }\n\n    /// @notice Set the policy to either accept requests from a pre-authorized list of senders or any address\n    function setAuthorizedSenderPolicy(bool _acceptOnlyAuthorizedSenders) public onlyOwner {\n        acceptOnlyAuthorizedSenders = _acceptOnlyAuthorizedSenders;\n    }\n\n    /// @notice Updates the maximum amount of gas that can be used on Aion to call a function\n    function updateMaximumBridgeTransactionGas(uint128 _maximumBridgeTransactionGas) public onlyOwner {\n        maximumBridgeTransactionGas = _maximumBridgeTransactionGas;\n    }\n\n    /// @notice Updates the fee for relaying each message to Aion\n    function updateTransactionFee(uint128 _transactionFee) public onlyOwner {\n        transactionFee = _transactionFee;\n        TransactionFeeUpdated(transactionFee);\n    }\n\n    /// @return true if the address is authorized to request message transfers, false otherwise\n    function isAuthorizedSender(address _senderAddress) public constant returns (bool){\n        if (!acceptOnlyAuthorizedSenders) return true;\n        else return authorizedSenders[_senderAddress];\n    }\n\n    /// @notice Update the contract address containing valid signatories\n    function updateSignatoryContract(address _newSignatoryContract) public onlyOwner {\n        signatoryContract = IBridgeSignatory(_newSignatoryContract);\n        SignatoryContractAddressChanged(signatoryContract);\n    }\n\n    function destroy() onlyOwner public {\n        selfdestruct(owner);\n    }\n\n    /// @notice Withdraw certain amount from the contract\n    function withdraw(uint amount) onlyOwner returns (bool) {\n        require(amount <= this.balance);\n        owner.transfer(amount);\n        return true;\n    }\n}\n\n\n\n",
  "sourcePath": "/home/nuco/Desktop/temp/contracts/EthBridgeContracts_flat.sol",
  "compiler": {
    "name": "solc",
    "version": "0.4.19+commit.c4cbbb05.Emscripten.clang"
  },
  "schemaVersion": "2.0.0",
  "updatedAt": "2019-01-09T14:51:27.056Z"
}